:1000000045C0000060C000005EC000005CC0000091
:100010005AC0000058C0000056C0000054C0000084
:1000200052C0000050C000004EC000004CC0000094
:100030004AC0000048C0000046C0000044C00000A4
:100040004FC0000040C000003EC000003CC00000A7
:100050003AC0000038C0000036C0000034C00000C4
:1000600032C0000030C000002EC000002CC00000D4
:100070002AC0000028C0000026C0000024C00000E4
:1000800022C0000020C000001EC0000011241FBEBE
:10009000CFEFD0E1DEBFCDBF11E0A0E0B1E0EEEBED
:1000A000FCE000E00BBF02C007900D92AA30B10740
:1000B000D9F721E0AAE0B1E001C01D92AA31B20750
:1000C000E1F73AD0FAC59CCF87E083BF82ED82BFCB
:1000D00087B7816087BF86B7816086BF78940895AF
:1000E0001F920F920FB60F9211242F938F939F930D
:1000F00082ED82BF80910A018F5F843619F0809370
:100100000A010CC010920A01349BFECF84B125B1C4
:1001100090E0922B90930C0180930B019F918F9113
:100120002F910F900FBE0F901F90189581EC87B9FB
:1001300086EA86B9369A08958FE39CE90197F1F72C
:1001400000C0000040E068E380E490E0ECD282E38D
:1001500066D3BADFEBDF80910B0190910C019C011B
:10016000255833402436310508F04CC018E3C12F20
:10017000D0E040E050E06FEF70E0CE0100D240E010
:100180005EE56FEF70E0CE010196F9D140E054EEEC
:100190006FEF70E0CE010296F2D146E15BED6DE1CA
:1001A00070E0CE010396EBD14FEF50E060E070E0DD
:1001B000CE010496E4D14FEF50E061E070E0CE0153
:1001C0000596DDD149E950E06FE370E0CE01069677
:1001D000D6D143D29FEF21EE84E091502040804061
:1001E000E1F700C000001850183F09F0C0CF9FEFA2
:1001F00029E688E1915020408040E1F700C00000EE
:1002000001D3A9CF9C01215233402436310508F097
:1002100044C018E3C12FD0E040E050E06FEF70E041
:10022000CE01ADD140E05EE56FEF70E0CE0101960A
:10023000A6D140E054EE6FEF70E0CE0102969FD160
:1002400046E15BED6DE170E0CE01039698D14FEF92
:1002500050E060E070E0CE01049691D14FEF50E0A5
:1002600061E070E0CE0105968AD1F7D19FEF21EED3
:1002700084E0915020408040E1F700C00000185019
:10028000183F41F69FEF29E688E1915020408040D9
:10029000E1F700C00000B6D25ECF9C012955324084
:1002A000283C310508F03DC018E3C12FD0E040E004
:1002B00050E06FEF70E0CE0162D140E05EE56FEF9D
:1002C00070E0CE0101965BD140E054EE6FEF70E03C
:1002D000CE01029654D146E15BED6DE170E0CE01B6
:1002E00003964DD14FEF50E060E070E0CE010496F0
:1002F00046D1B3D19FEF21EE84E091502040804061
:10030000E1F700C000001850183F79F69FEF29E68A
:1003100088E1915020408040E1F700C0000072D297
:100320001ACF9C01255F314024363105B0F518E322
:10033000C12FD0E040E050E06FEF70E0CE011FD160
:1003400040E05EE56FEF70E0CE01019618D140E02D
:1003500054EE6FEF70E0CE01029611D146E15BEDF5
:100360006DE170E0CE0103960AD177D19FEF21EEC7
:1003700084E0915020408040E1F700C00000185018
:10038000183FB1F69FEF29E688E191502040804068
:10039000E1F700C0000036D2DECE9C012D52314084
:1003A000283C310578F5C8E30C2F10E040E050E020
:1003B0006FEF70E0C801E3D040E05EE56FEF70E002
:1003C000C8010196DCD040E054EE6FEF70E0C80148
:1003D0000296D5D042D19FEF21EE84E0915020408B
:1003E0008040E1F700C00000C850C83FE9F69FEF29
:1003F00029E688E1915020408040E1F700C00000EC
:1004000001D2A9CE9C0125563109283C310540F581
:10041000C8E30C2F10E040E050E06FEF70E0C8013F
:10042000AED040E05EE56FEF70E0C8010196A7D066
:1004300014D19FEF21EE84E0915020408040E1F7FD
:1004400000C00000C850C83F21F79FEF29E688E1AF
:10045000915020408040E1F700C00000D3D17BCE16
:100460009C012F5131092634310500F5C8E340E0E5
:1004700050E06FEF70E08C2F90E081D0EED09FEFD6
:1004800021EE84E0915020408040E1F700C0000060
:10049000C850C83F61F79FEF29E688E1915020409E
:1004A0008040E1F700C00000ADD155CE4F9710F469
:1004B000A9D151CE18E3C12FD0E040E050E06FEF5A
:1004C00070E0CE015CD040E05EE56FEF70E0CE0101
:1004D000019655D040E054EE6FEF70E0CE010296E9
:1004E0004ED046E15BED6DE170E0CE01039647D062
:1004F0004FEF50E060E070E0CE01049640D04FEF47
:1005000050E061E070E0CE01059639D049E950E055
:100510006FE370E0CE01069632D04DED50E06FEF04
:1005200070E0CE0107962BD098D09FEF21EE84E0AB
:10053000915020408040E1F700C000001850183F63
:1005400009F0B9CF9FEF29E688E191502040804023
:10055000E1F700C0000056D1FECDE82FF0E0DF014A
:100560008E9121E030E002C0220F331F6A95E2F73E
:10057000822B8C93808120952823208308958F924D
:100580009F92AF92BF92CF92DF92EF92FF92209113
:100590000F01309110018217930708F055C06B01CD
:1005A000EE24FF24AC2D852E962EA72EBB24B82D2D
:1005B000242F309106013F3FC9F1209106012230DE
:1005C00080F12091060130E02F5F3F4FA82DA16000
:1005D000A29FF001A39FF00D1124E138F10520F056
:1005E000E058F109BF2F01C0B0E0AC2DA160A29F7F
:1005F000F001A39FF00D1124E138F10520F0E0583F
:10060000F109AF2F01C0A0E04160429FB001439FBC
:10061000700D11246138710540F060587109272F61
:1006200005C020E0B0E0A0E001C020E0FC01EE0F3A
:10063000FF1F8E0F9F1FE0911301F0911401E80F2F
:10064000F91FB083A1832283FF90EF90DF90CF90BA
:10065000BF90AF909F908F900895CF93DF93CDB7C9
:10066000DEB727970FB6F894DEBF0FBECDBF87EC7D
:1006700090E00197F1F700C00000F89480910D011F
:1006800090910E019A838983E0911301F0911401F6
:10069000DF01119680818B83E0911101F0911201AD
:1006A000908180911501892B8E8390818091150115
:1006B000809589238F838F818C8388E08D835E81F1
:1006C0006F814B813D812C8189819A81508347FDC7
:1006D000252F2083262F3A9539F0440F00C00000C3
:1006E000608300C00000F2CF4D91608338E00000CD
:1006F000019761F7F0931201E09311014B833D8361
:100700002C839A838983789487EC90E00197F1F7A2
:1007100000C0000027960FB6F894DEBF0FBECDBF15
:10072000DF91CF910895FF920F931F93CF93DF93A3
:100730001F92CDB7DEB78C016983F42E8981642FB7
:100740000CDF898190E0909312018093110181E088
:1007500090E002C0880F991FFA94E2F78093150188
:100760001093100100930F018091070190910801EF
:1007700090930E0180930D018FEF8093060180917D
:100780000D0190910E0165D1909314018093130196
:10079000009739F040910D0150910E0160E070E03A
:1007A00085D25BDF8091130190911401E7D12FEF87
:1007B00080E792E0215080409040E1F700C00000C7
:1007C000C801880F991F080F191F10930E0100937D
:1007D0000D0180910D0190910E013BD19093140178
:1007E00080931301009739F040910D0150910E0153
:1007F00060E070E05BD20F90DF91CF911F910F917D
:10080000FF90089540910D0150910E0160E070E05D
:10081000809113019091140149D21FCF08954F92F6
:100820005F926F927F928F929F92AF92BF92DF9270
:10083000EF92FF920F931F93CF93DF93D82E809167
:100840000601D81609F4B4C09091130180911401E7
:1008500080900601912C2FEF821A920AD11035C098
:1008600020910D0130910E01232B09F49FC0C92F57
:10087000D82FE92EF82E00E010E0A12CB12CF701C2
:1008800081917F018823A9F0608170E06F5F7F4FC5
:10089000CB01770FAA0BBB0B77276627A501940125
:1008A00097D0DA01C90180589109A109B10998834B
:1008B00001C018820F5F1F4F80910D0190910E01B2
:1008C000219608171907D8F271C0FFEFDF1639F02B
:1008D00020910D0130910E01232BB1F567C02091BD
:1008E0000D0130910E01232B09F460C0E92EF82E82
:1008F000C92FD82F00E010E0A12CB12CF701819175
:100900007F018823A9F0608170E06F5F7F4FCB018A
:10091000770FAA0BBB0B77276627A501940158D048
:10092000DA01C90180589109A109B109988301C070
:1009300018820F5F1F4F80910D0190910E0121963B
:1009400008171907D8F232C04D2C512CFFEF4F1A5F
:100950005F0A542C4424612C712CE92EF82EC92FE7
:10096000D82F00E010E0A12CB12CF70181917F017C
:10097000882389F0A081B0E01196A301920159D09B
:10098000A501940125D0DA01C90180589109A10976
:10099000B109988301C018820F5F1F4F80910D012C
:1009A00090910E01219608171907F8F2D0920601CE
:1009B000DF91CF911F910F91FF90EF90DF90BF904B
:1009C000AF909F908F907F906F905F904F90089521
:1009D000A1E21A2EAA1BBB1BFD010DC0AA1FBB1F43
:1009E000EE1FFF1FA217B307E407F50720F0A21BB5
:1009F000B30BE40BF50B661F771F881F991F1A9422
:100A000069F760957095809590959B01AC01BD014B
:100A1000CF010895A29FB001B39FC001A39F700DA5
:100A2000811D1124911DB29F700D811D1124911DF6
:100A30000895B7FF04C003D0821B930B0895EADF2B
:100A4000A59F900DB49F900DA49F800D911D112422
:100A50000895CF93DF938230910510F482E090E007
:100A6000E0911801F091190120E030E0C0E0D0E001
:100A7000309711F14081518148175907C0F048174C
:100A8000590761F482819381209719F09B838A83AF
:100A90002BC0909319018093180126C021153105B0
:100AA00019F04217530718F49A01BE01DF01EF0154
:100AB0000280F381E02DDCCF2115310509F1281BDF
:100AC000390B2430310590F412968D919C91139737
:100AD0006115710521F0FB019383828304C090931B
:100AE000190180931801FD01329644C0FD01E20F07
:100AF000F31F81939193225031092D933C933AC077
:100B00002091160130911701232B41F4209102010D
:100B100030910301309317012093160120910001B9
:100B2000309101012115310541F42DB73EB74091B7
:100B3000040150910501241B350BE0911601F09141
:100B40001701E217F307A0F42E1B3F0B28173907F4
:100B500078F0AC014E5F5F4F2417350748F04E0F19
:100B60005F1F50931701409316018193919302C028
:100B7000E0E0F0E0CF01DF91CF9108950F931F9354
:100B8000CF93DF93009709F48CC0FC013297138256
:100B9000128200911801109119010115110581F4BB
:100BA00020813181820F931F20911601309117010E
:100BB0002817390779F5F0931701E093160171C0F2
:100BC000D80140E050E0AE17BF0750F412962D91C7
:100BD0003C911397AD012115310509F1D901F3CFEE
:100BE0009D01DA013383228360817181860F971F13
:100BF0008217930769F4EC0128813981260F371F8A
:100C00002E5F3F4F318320838A819B819383828330
:100C1000452B29F4F0931901E093180142C0139673
:100C2000FC93EE931297ED01499159919E01240F87
:100C3000351FE217F30771F480819181840F951FAE
:100C4000029611969C938E938281938113969C9326
:100C50008E931297E0E0F0E0D80112968D919C916E
:100C60001397009719F0F8018C01F6CF8D919C91A4
:100C700098012E5F3F4F820F931F209116013091F4
:100C800017012817390769F4309729F410921901D0
:100C90001092180102C01382128210931701009360
:100CA0001601DF91CF911F910F910895DC0101C0D2
:0E0CB0006D9341505040E0F70895F894FFCF47
:0A0CBE0000001A012000FFC0000032
:00000001FF
