:100000005CC000006AC0000068C0000066C000005C
:1000100064C0000062C0000060C000005EC000005C
:100020005CC000005AC0000058C0000056C000006C
:1000300054C0000052C0000050C000004EC000007C
:100040004CC000004AC0000048C0000046C000008C
:1000500044C0000042C0000040C000003EC000009C
:100060003CC000003AC0000038C0000036C00000AC
:1000700034C0000032C0000030C000002EC00000BC
:100080002CC000002AC0000028C00000084AD73B4E
:100090003BCE016E84BCBFFDC12F3D6C74319ABD57
:1000A00056833DDA3D00C77F11BED9E4BB4C3E917B
:1000B0006BAAAABE000000803F0011241FBECFEF34
:1000C000D0E1DEBFCDBF25E0A0E0B1E001C01D92D0
:1000D000A133B207E1F73BD240C592CF84E08093D1
:1000E00074001092710082E180937000089594EA88
:1000F00090937400E4E7F0E0A1E7B0E090819923E9
:10010000ECF79C91987F9830C9F72FEF39EF90E08A
:10011000215030409040E1F700C000008093730010
:1001200084E880937400E4E7F0E0A1E7B0E0808128
:100130008823ECF78C91887F8831C9F72FEF39EF4E
:1001400080E0215030408040E1F700C00000609323
:10015000730084E880937400E4E7F0E0A1E7B0E086
:1001600080818823ECF78C91887F8832C9F79FEFD4
:1001700029EF30E0915020403040E1F700C000000E
:100180004093730084E880937400E4E7F0E0A1E713
:10019000B0E080818823ECF78C91887F8832C9F7A2
:1001A0008FEF99EF20E0815090402040E1F700C0B0
:1001B000000084E9809374003FEF89EF90E03150B4
:1001C00080409040E1F700C00000089594EA9093C9
:1001D0007400E4E7F0E0A1E7B0E090819923ECF748
:1001E0009C91987F9830C9F72FEF39EF90E021501C
:1001F00030409040E1F700C000008093730094E825
:1002000090937400E4E7F0E0A1E7B0E090819923D7
:10021000ECF79C91987F9831C9F72FEF39EF90E078
:10022000215030409040E1F700C00000609373001F
:1002300094E890937400E4E7F0E0A1E7B0E09081E7
:100240009923ECF79C91987F9832C9F72FEF39EFFB
:1002500090E0215030409040E1F700C0000094EA67
:1002600090937400E4E7F0E0A1E7B0E09081992377
:10027000ECF79C91987F9031C9F72FEF39EF90E020
:10028000215030409040E1F700C000008F5F809324
:10029000730084E880937400E4E7F0E0A1E7B0E045
:1002A00080818823ECF78C91887F8034C9F72FEF09
:1002B00039EF80E0215030408040E1F700C000007D
:1002C00084E880937400E4E7F0E0A1E7B0E0808187
:1002D0008823ECF78C91887F8835C9F7809173006B
:1002E0009FEF29EF30E0915020403040E1F700C00F
:1002F000000094E99093740090E00895CF93DF9309
:1003000063E480ED63DFC7E1D1E09D878C8764E41F
:1003100080ED5CDF9F878E8765E480ED57DF998BEA
:10032000888B66E480ED52DF9B8B8A8B67E480EDDF
:100330004DDF9D8B8C8B68E480ED48DF9F8B8E8B2F
:1003400061E480ED43DF9DA38CA362E480ED3EDF9A
:100350009FA38EA340E050E058812A813B81240F67
:10036000351F309314012093130140E050E05C816D
:100370002E813F81240F351F30932E0520932D05AC
:1003800040E050E058852A853B85240F351F309387
:100390000B0120930A0140E050E05C852E853F85EB
:1003A000420F531F50932C0540932B0560E070E0E3
:1003B00078894A895B89460F571F509309014093FA
:1003C000080160E070E07C894E895F89460F571F05
:1003D000509328054093270520E030E03CA1280FEA
:1003E000391F3093050120930401DF91CF910895C7
:1003F00060912B0570912C05072E000C880B990B32
:1004000029D220E030E043E852E489D1F0D1709362
:100410002605609325056091080170910901072E5A
:10042000000C880B990B16D220E030E043E852E430
:1004300076D1DDD170930D0160930C016091270599
:1004400070912805072E000C880B990B03D220E031
:1004500030E043E852E463D1CAD170930301609362
:1004600002018091130190911401909307018093F0
:10047000060180912D0590912E0590931201809395
:10048000110180910A0190910B01909301018093D9
:1004900000010895CF92DF92EF92FF922FDFA8DF45
:1004A0006091000170910101072E000C880B990BDF
:1004B000D1D16B017C018091060190910701BC01B3
:1004C000990F880B990BC6D1A7019601D5D020E0D2
:1004D00030E044E353E476D22BED3FE049E450E4CE
:1004E0001ED185D17093240560932305809111015D
:1004F00090911201BC01990F880B990BABD1A70108
:100500009601BAD020E030E044E353E45BD22BED17
:100510003FE049E450E403D16AD17093160160933F
:100520001501FF90EF90DF90CF90089540E06BE6CB
:1005300080EDDDDD40E06CE680EDD9DD48E06BE18B
:1005400080EDD5DD48E06CE180EDD1CD0895C6DDCC
:10055000EDDF8FEF8ABB1BBA87BB88BB0BEFCFEFFA
:100560001DEF0F2EFEEFFF2EF02DD1E093DF2FEFCA
:1005700089EF90E0215080409040E1F700C00000FA
:10058000809110018A3009F062C080912B05909112
:100590002C0599231CF4919581959109883E9340EF
:1005A000C4F4809108019091090199231CF491955C
:1005B00081959109883E934064F48091270590913C
:1005C000280599231CF4919581959109883E9340C3
:1005D0005CF0DBBB8FEF99E628E181509040204032
:1005E000E1F700C000001BBA809104019091050161
:1005F00099231CF4919581959109883823E19207FC
:1006000064F0F8BA8FEF99E628E1815090402040DD
:10061000E1F700C00000C8BB1AC0883B9B4064F0F3
:1006200018BB8FEF99E628E1815090402040E1F718
:1006300000C00000C8BB0BC008BB8FEF99E628E1E3
:10064000815090402040E1F700C00000C8BB80917D
:1006500010018F5F8093100189CF65D158F080E839
:1006600091E009F49EEF66D128F040E851E059F49A
:100670005EEF09C030C198C1E92FE07873D168F30B
:10068000092E052AC1F3261737074807590738F0FE
:100690000E2E07F8E02569F0E025E0640AC0EF635C
:1006A00007F8009407FADB01B9019D01DC01CA01DA
:1006B000AD01EF9343D045D10AD05F91552331F07E
:1006C0002BED3FE049E450FD49ECE3C10895DF9391
:1006D000DD27B92FBF7740E85FE3161617064807F6
:1006E0005B0710F4D92F67D19F938F937F936F93FC
:1006F000CCD1ECE8F0E0F2D024D12F913F914F9192
:100700005F916CD1DD2349F09058A2EA2AED3FE0D9
:1007100049EC5FE3D0785D27CDD1DF9112C10CD0D9
:1007200010C108D140F0FFD030F021F45F3F19F044
:10073000CCC051113AC1CFC015D198F39923C9F358
:100740005523B1F3951B550BBB27AA2762177307D7
:10075000840738F09F5F5F4F220F331F441FAA1F8B
:10076000A9F333D00E2E3AF0E0E830D0915050404B
:10077000E695001CCAF729D0FE2F27D0660F771FF9
:10078000881FBB1F261737074807AB07B0E809F0DB
:10079000BB0B802DBF01FF2793585F4F2AF09E3F70
:1007A000510568F092C001C15F3FECF3983EDCF365
:1007B000869577956795B795F7959F5FC9F7880FE9
:1007C000911D9695879597F90895E1E0660F771F3B
:1007D000881FBB1F621773078407BA0720F0621BCC
:1007E000730B840BBA0BEE1F88F7E095089504D0C5
:1007F0006894B111DAC00895BDD088F09F5790F089
:10080000B92F9927B751A0F0D1F0660F771F881F35
:10081000991F1AF0BA95C9F712C0B13081F0C4D04F
:10082000B1E00895C1C0672F782F8827B85F39F0ED
:10083000B93FCCF3869577956795B395D9F73EF494
:1008400090958095709561957F4F8F4F9F4F08953C
:10085000E89409C097FB3EF490958095709561955A
:100860007F4F8F4F9F4F9923A9F0F92F96E9BB2710
:100870009395F695879577956795B795F111F8CF8C
:10088000FAF4BB0F11F460FF1BC06F5F7F4F8F4FF7
:100890009F4F16C0882311F096E911C0772321F0ED
:1008A0009EE8872F762F05C0662371F096E8862F85
:1008B00070E060E02AF09A95660F771F881FDAF7DC
:1008C000880F9695879597F9089597F99F6780E81F
:1008D00070E060E008959FEF80EC0895DF93CF9380
:1008E0001F930F93FF92EF92DF927B018C0168942C
:1008F00005C0DA2EEF0172D0FE01E894A591259192
:10090000359145915591AEF3EF01D4D0FE01970199
:10091000A801DA9479F7DF90EF90FF900F911F9183
:10092000CF91DF91089500240A9416161706180631
:100930000906089500240A941216130614060506E3
:100940000895092E0394000C11F4882352F0BB0F74
:1009500040F4BF2B11F460FF04C06F5F7F4F8F4FD7
:100960009F4F089557FD9058440F551F59F05F3F12
:1009700071F04795880F97FB991F61F09F3F79F0C1
:1009800087950895121613061406551FF2CF469543
:10099000F1DF08C0161617061806991FF1CF8695C5
:1009A0007105610508940895E894BB2766277727A9
:1009B000CB0197F908959B01AC0160E070E080E8FD
:1009C0009FE3ADCE0BD0BDCFAEDF28F0B3DF18F084
:1009D000952309F07ACF7FCF1124E7CFC3DFA0F3AF
:1009E000959FD1F3950F50E0551F629FF001729FC4
:1009F000BB27F00DB11D639FAA27F00DB11DAA1FE3
:100A0000649F6627B00DA11D661F829F2227B00D2F
:100A1000A11D621F739FB00DA11D621F839FA00DBA
:100A2000611D221F749F3327A00D611D231F849F0A
:100A3000600D211D822F762F6A2F11249F57504061
:100A40008AF0E1F088234AF0EE0FFF1FBB1F661FFC
:100A5000771F881F91505040A9F79E3F510570F0B5
:100A600034CFA3CF5F3FECF3983EDCF386957795C8
:100A70006795B795F795E7959F5FC1F7FE2B880FB0
:100A8000911D9695879597F908959B01AC019ACF92
:100A90005058BB27AA270ED054CF45DF30F04ADF8D
:100AA00020F031F49F3F11F41EF415CF0EF4E095C1
:100AB000E7FB0BCFE92F56DF80F3BA176207730706
:100AC0008407950718F071F49EF56ECF0EF4E0954B
:100AD0000B2EBA2FA02D0B01B90190010C01CA01F8
:100AE000A0011124FF27591B99F0593F50F4503EA3
:100AF00068F11A16F040A22F232F342F4427585F95
:100B0000F3CF469537952795A795F0405395C9F7AC
:100B10007EF41F16BA0B620B730B840BBAF0915064
:100B2000A1F0FF0FBB1F661F771F881FC2F70EC003
:100B3000BA0F621F731F841F48F4879577956795D6
:100B4000B795F7959E3F08F0B3CF9395880F08F0BF
:0E0B50009927EE0F979587950895F894FFCF9B
:00000001FF
