:1000000045C0000060C000005EC000005CC0000091
:100010005AC0000058C0000056C0000054C0000084
:1000200052C0000050C000004EC000004CC0000094
:100030004AC0000048C0000046C0000044C00000A4
:100040004FC0000040C000003EC000003CC00000A7
:100050003AC0000038C0000036C0000034C00000C4
:1000600032C0000030C000002EC000002CC00000D4
:100070002AC0000028C0000059C0000024C00000B1
:1000800022C0000020C000001EC0000011241FBEBE
:10009000CFEFD0E1DEBFCDBF11E0A0E0B1E0ECE9F1
:1000A000F0E100E00BBF02C007900D92AA32B10749
:1000B000D9F723E0AAE2B1E001C01D92A033B20754
:1000C000E1F7CED1E9C79CCF87E083BF82ED82BF45
:1000D00087B7816087BF86B7816086BF78940895AF
:1000E0001F920F920FB60F9211242F938F939F930D
:1000F00082ED82BF809188018F5F843619F08093F2
:1001000088010CC010928801349BFECF84B125B1C8
:1001100090E0922B90938A01809389019F918F9117
:100120002F910F900FBE0F901F9018951F920F9256
:100130000FB60F9211240BB60F922F933F934F934C
:100140005F936F937F938F939F93AF93BF93CF935F
:10015000DF93EF93FF9380919C008093F101809156
:10016000F101843249F48093BF0281E090E09093E2
:10017000F6018093F501EAC0C091F501D091F60136
:100180008091F101FE01E154FD4F80838A3009F036
:10019000D4C0D093F001C093EF0146E050E06FEB84
:1001A00072E08AE191E043D7892BD1F5AE016FEB84
:1001B00072E087EF91E02BD767E271E087EF91E083
:1001C00023D780938601909387011092F3011092B8
:1001D000F201282F392F2115310511F1E091F2019B
:1001E000F091F301EE0FFF1FE859FE4F318320839A
:1001F00067E271E080E090E007D7809386019093FA
:1002000087012091F2013091F3012F5F3F4F30932E
:10021000F3012093F201282F392F21153105F1F632
:1002200046E050E06FEB72E080E191E000D7892B6F
:1002300009F03DC04091EF015091F0016FEB72E089
:100240008BE592E0E4D667E271E08BE592E0DCD6E4
:1002500080938601909387011092F3011092F2012E
:10026000282F392F2115310511F1E091F201F0917C
:10027000F301EE0FFF1FE65BFE4F3183208367E241
:1002800071E080E090E0C0D6809386019093870172
:100290002091F2013091F3012F5F3F4F3093F30132
:1002A0002093F201282F392F21153105F1F6C09145
:1002B000EF01D091F001AE016FEB72E086E091E0CA
:1002C000B6D6892BD1F5AE016FEB72E08BE891E0E9
:1002D0009ED667E271E08BE891E096D68093860126
:1002E000909387011092F3011092F201282F392F79
:1002F0002115310511F1E091F201F091F301EE0FBA
:10030000FF1FE45DFE4F3183208367E271E080E0F0
:1003100090E07AD680938601909387012091F20134
:100320003091F3012F5F3F4F3093F3012093F2019F
:10033000282F392F21153105F1F68091F501909183
:10034000F60101969093F6018093F501FF91EF91EC
:10035000DF91CF91BF91AF919F918F917F916F91DD
:100360005F914F913F912F910F900BBE0F900FBE59
:100370000F901F9018951092900027E629B91BB88E
:1003800098E99AB986E0809395001092980020939E
:10039000990010929B0090939A0080939D0008957D
:1003A00081EC87B986EA86B9369A0895FC018CE417
:1003B0008CB981E68CB92FEF81EE94E0215080401A
:1003C0009040E1F700C000008AE38CB98FE99CE817
:1003D0000197F1F700C000009081992371F03196E8
:1003E0009CB99FEF21EE84E0915020408040E1F7DE
:1003F00000C0000091919111F3CF80E28CB9089573
:10040000FC018CE48CB98FE99CE80197F1F700C0FE
:1004100000008FE68CB99FEF21EE84E091502040E0
:100420008040E1F700C000008AE38CB98FE99CE8C6
:100430000197F1F700C000009081992371F0319687
:100440009CB99FEF21EE84E0915020408040E1F77D
:1004500000C0000091919111F3CF80E28CB9089512
:1004600081E082B988E081BB8FE39CE90197F1F7D5
:1004700000C0000040E068E380E490E002D382E343
:100480007CD322DE8DDF77DFEFE1FEE43197F1F7F9
:1004900000C0000078940F2EF8E6EF2EF1E0FF2E5A
:1004A000F02DF7018481958181DFF70180859185A9
:1004B000A7DF8091890190918A019C0125583340E2
:1004C0002436310508F04CC018E3C12FD0E040E0DD
:1004D00050E06FEF70E0CE0100D240E05EE56FEFDC
:1004E00070E0CE010196F9D140E054EE6FEF70E07C
:1004F000CE010296F2D146E15BED6DE170E0CE01F6
:100500000396EBD14FEF50E060E070E0CE0104962F
:10051000E4D14FEF50E061E070E0CE010596DDD10F
:1005200049E950E06FE370E0CE010696D6D143D2A0
:10053000FFEF21EE84E0F15020408040E1F700C061
:1005400000001850183F09F0C0CF9FEFE9E6F8E12E
:100550009150E040F040E1F700C0000001D3A1CF8E
:100560009C01215233402436310508F044C018E381
:10057000C12FD0E040E050E06FEF70E0CE01ADD190
:1005800040E05EE56FEF70E0CE010196A6D140E05D
:1005900054EE6FEF70E0CE0102969FD146E15BED25
:1005A0006DE170E0CE01039698D14FEF50E060E02E
:1005B00070E0CE01049691D14FEF50E061E070E021
:1005C000CE0105968AD1F7D12FEF81EE94E021502C
:1005D00080409040E1F700C000001850183F41F6FD
:1005E000EFEFF9E628E1E150F0402040E1F700C0EC
:1005F0000000B6D256CF9C0129553240283C310527
:1006000008F03DC018E3C12FD0E040E050E06FEFAC
:1006100070E0CE0162D140E05EE56FEF70E0CE01A8
:1006200001965BD140E054EE6FEF70E0CE01029690
:1006300054D146E15BED6DE170E0CE0103964DD102
:100640004FEF50E060E070E0CE01049646D1B3D1A8
:100650008FEF91EEE4E081509040E040E1F700C080
:1006600000001850183F79F6FFEF29E688E1F150B5
:1006700020408040E1F700C0000072D212CF9C0100
:10068000255F314024363105B0F518E3C12FD0E0A5
:1006900040E050E06FEF70E0CE011FD140E05EE53A
:1006A0006FEF70E0CE01019618D140E054EE6FEF8D
:1006B00070E0CE01029611D146E15BED6DE170E094
:1006C000CE0103960AD177D19FEFE1EEF4E091508D
:1006D000E040F040E1F700C000001850183FB1F6CC
:1006E0002FEF89E698E1215080409040E1F700C06B
:1006F000000036D2D6CE9C012D523140283C310527
:1007000078F5C8E30C2F10E040E050E06FEF70E0A8
:10071000C801E3D040E05EE56FEF70E0C8010196EC
:10072000DCD040E054EE6FEF70E0C8010296D5D007
:1007300042D1EFEFF1EE24E0E150F0402040E1F74C
:1007400000C00000C850C83FE9F68FEF99E6E8E125
:1007500081509040E040E1F700C0000001D2A1CEFE
:100760009C0125563109283C310540F5C8E30C2F82
:1007700010E040E050E06FEF70E0C801AED040E024
:100780005EE56FEF70E0C8010196A7D014D1FFEFCE
:1007900021EE84E0F15020408040E1F700C00000ED
:1007A000C850C83F21F79FEFE9E6F8E19150E040DB
:1007B000F040E1F700C00000D3D173CE9C012F516F
:1007C00031092634310500F5C8E340E050E06FEF11
:1007D00070E08C2F90E081D0EED02FEF81EE94E08E
:1007E000215080409040E1F700C00000C850C83F51
:1007F00061F7EFEFF9E628E1E150F0402040E1F742
:1008000000C00000ADD14DCE4F9710F4A9D149CE14
:1008100018E3C12FD0E040E050E06FEF70E0CE0170
:100820005CD040E05EE56FEF70E0CE01019655D000
:1008300040E054EE6FEF70E0CE0102964ED046E1FC
:100840005BED6DE170E0CE01039647D04FEF50E0D5
:1008500060E070E0CE01049640D04FEF50E061E0E0
:1008600070E0CE01059639D049E950E06FE370E0C1
:10087000CE01069632D04DED50E06FEF70E0CE0124
:1008800007962BD098D08FEF91EEE4E08150904006
:10089000E040E1F700C000001850183F09F0B9CF60
:1008A000FFEF29E688E1F15020408040E1F700C0E9
:1008B000000056D1F6CDE82FF0E0DF018E9121E067
:1008C00030E002C0220F331F6A95E2F7822B8C932F
:1008D000808120952823208308958F929F92AF9244
:1008E000BF92CF92DF92EF92FF9220912503309139
:1008F00026038217930708F055C06B01EE24FF24EE
:10090000AC2D852E962EA72EBB24B82D242F3091EA
:1009100024013F3FC9F120912401223080F1209130
:10092000240130E02F5F3F4FA82DA160A29FF0016E
:10093000A39FF00D1124E138F10520F0E058F109F2
:10094000BF2F01C0B0E0AC2DA160A29FF001A39F1A
:10095000F00D1124E138F10520F0E058F109AF2F36
:1009600001C0A0E04160429FB001439F700D11247F
:100970006138710540F060587109272F05C020E0EB
:10098000B0E0A0E001C020E0FC01EE0FFF1F8E0FE1
:100990009F1FE0912903F0912A03E80FF91FB0830C
:1009A000A1832283FF90EF90DF90CF90BF90AF9014
:1009B0009F908F900895CF93DF93CDB7DEB72797A1
:1009C0000FB6F894DEBF0FBECDBF87EC90E0019765
:1009D000F1F700C00000F894809123039091240364
:1009E0009A838983E0912903F0912A03DF0111960C
:1009F00080818B83E0912703F0912803908180917F
:100A00002B03892B8E83908180912B0380958923E2
:100A10008F838F818C8388E08D835E816F814B8192
:100A20003D812C8189819A81508347FD252F208328
:100A3000262F3A9539F0440F00C00000608300C0B3
:100A40000000F2CF4D91608338E00000019761F71C
:100A5000F0932803E09327034B833D832C839A83F1
:100A60008983789487EC90E00197F1F700C000004B
:100A700027960FB6F894DEBF0FBECDBFDF91CF91A2
:100A80000895FF920F931F93CF93DF931F92CDB7DB
:100A9000DEB78C016983F42E8981642F0CDF898194
:100AA00090E0909328038093270381E090E002C0B8
:100AB000880F991FFA94E2F780932B031093260373
:100AC00000932503809125019091260190932403A2
:100AD000809323038FEF80932401809123039091CF
:100AE000240365D190932A0380932903009739F05A
:100AF000409123035091240360E070E091D25BDFCA
:100B00008091290390912A03E7D12FEF80E792E0AB
:100B1000215080409040E1F700C00000C801880FDC
:100B2000991F080F191F109324030093230380912A
:100B30002303909124033BD190932A0380932903AC
:100B4000009739F0409123035091240360E070E056
:100B500067D20F90DF91CF911F910F91FF90089571
:100B6000409123035091240360E070E080912903B9
:100B700090912A0355D21FCF08954F925F926F92A2
:100B80007F928F929F92AF92BF92DF92EF92FF92ED
:100B90000F931F93CF93DF93D82E80912401D81603
:100BA00009F4B4C09091290380912A038090240114
:100BB000912C2FEF821A920AD11035C02091230375
:100BC00030912403232B09F49FC0C92FD82FE92E7D
:100BD000F82E00E010E0A12CB12CF70181917F01EB
:100BE0008823A9F0608170E06F5F7F4FCB01770FA2
:100BF000AA0BBB0B77276627A501940197D0DA01D2
:100C0000C90180589109A109B109988301C01882CE
:100C10000F5F1F4F809123039091240321960817A3
:100C20001907D8F271C0FFEFDF1639F020912303C6
:100C300030912403232BB1F567C020912303309119
:100C40002403232B09F460C0E92EF82EC92FD82FD6
:100C500000E010E0A12CB12CF70181917F018823E5
:100C6000A9F0608170E06F5F7F4FCB01770FAA0B17
:100C7000BB0B77276627A501940158D0DA01C9017B
:100C800080589109A109B109988301C018820F5FAA
:100C90001F4F809123039091240321960817190771
:100CA000D8F232C04D2C512CFFEF4F1A5F0A542C52
:100CB0004424612C712CE92EF82EC92FD82F00E086
:100CC00010E0A12CB12CF70181917F01882389F0DC
:100CD000A081B0E01196A301920159D0A501940121
:100CE00025D0DA01C90180589109A109B109988379
:100CF00001C018820F5F1F4F80912303909124033E
:100D0000219608171907F8F2D0922401DF91CF91AC
:100D10001F910F91FF90EF90DF90BF90AF909F9049
:100D20008F907F906F905F904F900895A1E21A2E60
:100D3000AA1BBB1BFD010DC0AA1FBB1FEE1FFF1F7F
:100D4000A217B307E407F50720F0A21BB30BE40BCF
:100D5000F50B661F771F881F991F1A9469F7609516
:100D60007095809590959B01AC01BD01CF010895D0
:100D7000A29FB001B39FC001A39F700D811D1124DC
:100D8000911DB29F700D811D1124911D0895B7FF13
:100D900004C003D0821B930B0895EADFA59F900D3A
:100DA000B49F900DA49F800D911D11240895CF93A1
:100DB000DF938230910510F482E090E0E0912E0301
:100DC000F0912F0320E030E0C0E0D0E0309711F147
:100DD0004081518148175907C0F04817590761F4FD
:100DE00082819381209719F09B838A832BC09093F3
:100DF0002F0380932E0326C02115310519F04217C9
:100E0000530718F49A01BE01DF01EF010280F3815C
:100E1000E02DDCCF2115310509F1281B390B2430D9
:100E2000310590F412968D919C911397611571057F
:100E300021F0FB019383828304C090932F0380935E
:100E40002E03FD01329644C0FD01E20FF31F819392
:100E50009193225031092D933C933AC020912C0359
:100E600030912D03232B41F4209102013091030195
:100E700030932D0320932C03209100013091010128
:100E80002115310541F42DB73EB740910401509131
:100E90000501241B350BE0912C03F0912D03E21783
:100EA000F307A0F42E1B3F0B2817390778F0AC018D
:100EB0004E5F5F4F2417350748F04E0F5F1F50936A
:100EC0002D0340932C038193919302C0E0E0F0E066
:100ED000CF01DF91CF9108950F931F93CF93DF93AD
:100EE000009709F48CC0FC013297138212820091A2
:100EF0002E0310912F030115110581F420813181FA
:100F0000820F931F20912C0330912D03281739074E
:100F100079F5F0932D03E0932C0371C0D80140E0E4
:100F200050E0AE17BF0750F412962D913C911397E5
:100F3000AD012115310509F1D901F3CF9D01DA0188
:100F40003383228360817181860F971F82179307F5
:100F500069F4EC0128813981260F371F2E5F3F4F3E
:100F6000318320838A819B8193838283452B29F45B
:100F7000F0932F03E0932E0342C01396FC93EE935D
:100F80001297ED01499159919E01240F351FE217E7
:100F9000F30771F480819181840F951F0296119659
:100FA0009C938E938281938113969C938E93129738
:100FB000E0E0F0E0D80112968D919C911397009794
:100FC00019F0F8018C01F6CF8D919C9198012E5F5C
:100FD0003F4F820F931F20912C0330912D03281730
:100FE000390769F4309729F410922F0310922E03D9
:100FF00002C01382128210932D0300932C03DF9101
:10100000CF911F910F9108954AE251E01EC0FB015C
:10101000DC0102C001900D9241505040D8F7089574
:10102000DC0101C06D9341505040E0F70895FB0191
:10103000DC014150504030F08D910190801919F43D
:101040000020B9F7881B990B0895FA01A191B0818E
:10105000009719F41097E1F0CD01DC01CD010D905E
:10106000002011F4C00113C0FB012191222319F0CB
:101070002015D9F7F3CFFB012191201519F41E9209
:10108000119606C02223C1F70D900020A1F7D001D0
:0C109000FA01A193B0830895F894FFCFFB
:10109C00000030032000244750524D430000000054
:1010AC002447504753410000000024475047474114
:0A10BC0000000000FFC0002C00003F
:00000001FF
