S01700004763634170706C69636174696F6E312E737265635B
S113000045C0000060C000005EC000005CC000008D
S11300105AC0000058C0000056C0000054C0000080
S113002052C0000050C000004EC000004CC0000090
S11300304AC0000048C0000046C0000044C00000A0
S113004042C0000040C000003EC000003CC00000B0
S11300503AC0000038C0000036C0000034C00000C0
S113006032C0000030C000002EC000002CC00000D0
S11300702AC0000028C0000026C0000024C00000E0
S113008022C0000020C000001EC0000011241FBEBA
S1130090CFEFD0E1DEBFCDBF11E0A0E0B1E0E8EBEF
S11300A0F9E000E00BBF02C007900D92A633B10740
S11300B0D9F721E0A6E3B1E001C01D92AA3AB20744
S11300C0E1F7ADD077C49CCF1BB888E18AB986E04C
S11300D0809395001092900083E389B908955D9B05
S11300E0FECF8CB90895CF93DF93EC0188818823E8
S11300F029F02196F4DF89918111FCCFDF91CF9112
S11301000895EFE9FFE03197F1F700C0000094EAA9
S113011090937400E4E7F0E0A1E7B0E090819923C4
S1130120ECF79C91987F9830C9F78093730094E81A
S113013090937400E4E7F0E090819923ECF76093E6
S1130140730094E890937400E4E7F0E090819923BD
S1130150ECF794EA90937400E4E7F0E0908199233B
S1130160ECF78F5F8093730084E880937400E4E776
S1130170F0E080818823ECF784E880937400E4E75E
S1130180F0E080818823ECF78091730094E99093E8
S1130190740090E00895EFE9FFE03197F1F700C0B3
S11301A0000094EA90937400E4E7F0E090819923CE
S11301B0ECF78093730084E880937400E4E7F0E044
S11301C080818823ECF76093730084E88093740043
S11301D0E4E7F0E080818823ECF74093730084E83F
S11301E080937400E4E7F0E080818823ECF784E9ED
S11301F08093740080E090E008958CE08093700018
S11302001092710081E0809374002FEF81EE94E0EE
S1130210215080409040E1F700C00000089583E041
S113022081BB82BB8FEF8ABB1BBA87BB18BA4CDF7A
S1130230E4DF8FE39CE90197F1F700C0000040E0A0
S11302406BE680EDA8DF9FEF21EE84E09150204023
S11302508040E1F700C0000040E06CE680ED9BDFE9
S11302609FEF21EE84E0915020408040E1F700C0F0
S1130270000048E06BE180ED8EDF9FEF21EE84E02B
S1130280915020408040E1F700C0000048E06CE15C
S113029080ED81DF9FEF21EE84E09150204080408B
S11302A0E1F700C0000010E0DD24D3940F2EF0E04D
S11302B0AF2EF1E0BF2EF02DC1E4D1E0E12C63E4D8
S11302C080ED1FDF8093360164E480ED1ADF8093B4
S11302D0400165E480ED15DF8093730166E480EDF1
S11302E010DF80933D0167E480ED0BDF80933A01DA
S11302F068E480ED06DF80933F012091360130E011
S1130300322F222790914001292B309338012093DA
S113031037012091730130E0322F222790913D0163
S1130320292B309375012093740120913A0190E0B8
S1130330922B9093A9018093A80161E480EDE1DE02
S113034080933E0161E480EDDCDE809339012091ED
S11303503E0190E0922B90933C0180933B011A3034
S113036009F05DC0809137019091380199231CF404
S1130370919581959109883E9340C4F480917401CC
S11303809091750199231CF4919581959109883E6A
S1130390934064F48091A8019091A90199231CF4DD
S11303A0919581959109883E9340C4F1DBBA8FEF12
S11303B099E628E1815090402040E1F700C0000018
S11303C01BBA80913C018F9380913B018F93809164
S11303D0A9018F938091A8018F93809175018F93C8
S11303E0809174018F93809138018F9380913701AC
S11303F08F93BF92AF92DF93CF9313D0CE0173DE6E
S11304008AE06DDE8DE06BDE8DB79EB70C960FB67D
S1130410F8949EBF0FBE8DBF1E2D01C01E2D1F5F01
S11304204ECF0F931F93CF93DF93CDB7DEB72E97A5
S11304300FB6F894DEBF0FBECDBF0D891E8986E0CE
S11304408C831A8309838FEF9FE79E838D83AE018C
S1130450475E5F4F6F89788DCE01019611D02F8151
S11304603885F801E20FF31F10822E960FB6F89428
S1130470DEBF0FBECDBFDF91CF911F910F910895C5
S11304802F923F924F925F926F927F928F929F92A0
S1130490AF92BF92CF92DF92EF92FF920F931F938E
S11304A0CF93DF93CDB7DEB72C970FB6F894DEBFAA
S11304B00FBECDBF7C016B018A01FC01178216823D
S11304C0838181FFB0C1CE0101964C01F701938174
S11304D0F60193FD859193FF81916F01882309F4BF
S11304E09EC1853239F493FD859193FF81916F010B
S11304F0853221F4B70190E0C7D1E8CF512C312CDB
S113050020E02032A0F48B3269F030F4803259F0CC
S1130510833269F420612CC08D3239F0803339F490
S1130520216026C02260246023C0286021C027FDEA
S113053027C030ED380F3A3078F426FF06C0FAE0D1
S11305405F9E300D1124532E13C08AE0389E300D67
S11305501124332E20620CC08E3221F426FD5FC19B
S1130560206406C08C3611F4206802C0883641F439
S1130570F60193FD859193FF81916F018111C1CFA4
S1130580982F9F7D9554933028F40C5F1F4FFFE301
S1130590F9830DC0833631F0833771F0833509F068
S11305A057C021C0F801808189830E5F1F4F442406
S11305B04394512C540114C03801F2E06F0E711CA5
S11305C0F801A080B18026FF03C0652D70E002C051
S11305D06FEF7FEFC5012C874CD12C0183012C8553
S11305E02F77222E16C03801F2E06F0E711CF8012D
S11305F0A080B18026FF03C0652D70E002C06FEFBC
S11306007FEFC5012C872AD12C012C852068222E4E
S1130610830123FC19C0832D90E048165906A0F4E9
S1130620B70180E290E030D13A94F5CFF50127FC90
S1130630859127FE81915F01B70190E025D13110AA
S11306403A94F1E04F1A51084114510479F7DEC08D
S1130650843611F0893631F5F80127FF07C060812F
S11306607181828193810C5F1F4F08C06081718109
S1130670072E000C880B990B0E5F1F4F2F76722EDE
S113068097FF09C090958095709561957F4F8F4F26
S11306909F4F2068722E2AE030E0A4012DD1A82EAD
S11306A0A81843C0853729F42F7EB22E2AE030E003
S11306B025C0F22FF97FBF2E8F36C1F018F488358C
S11306C079F0ADC0803719F0883721F0A8C02F2FFA
S11306D02061B22EB4FE0DC08B2D8460B82E09C0EB
S11306E024FF0AC09F2F9660B92E06C028E030E090
S11306F005C020E130E002C020E132E0F801B7FE9D
S113070007C060817181828193810C5F1F4F06C095
S11307106081718180E090E00E5F1F4FA401ECD0F6
S1130720A82EA818FB2DFF777F2E76FE0BC0372D41
S11307303E7FA51450F474FE0AC072FC08C0372D25
S11307403E7E05C0BA2C372D03C0BA2C01C0B52C8F
S113075034FF0DC0FE01EA0DF11D8081803311F4D8
S1130760397E09C032FF06C0B394B39404C0832F0A
S1130770867809F0B39433FD12C030FF06C05A2CBA
S1130780B31418F4530C5B18B32CB31460F4B7010E
S113079080E290E03C8778D0B3943C85F6CFB314E4
S11307A010F43B1801C0312C34FF11C0B70180E3B1
S11307B090E03C8769D03C8532FF16C031FD03C010
S11307C088E790E002C088E590E0B7010CC0832F71
S11307D0867851F031FF02C08BE201C080E237FD20
S11307E08DE2B70190E050D0A51430F4B70180E356
S11307F090E04AD05A94F8CFAA94F401EA0DF11D7E
S11308008081B70190E040D0A110F6CF332009F4E5
S11308105DCEB70180E290E037D03A94F7CFF7018C
S11308208681978102C08FEF9FEF2C960FB6F894C4
S1130830DEBF0FBECDBFDF91CF911F910F91FF900F
S1130840EF90DF90CF90BF90AF909F908F907F906C
S11308506F905F904F903F902F900895FC0105900A
S1130860615070400110D8F7809590958E0F9F1FAE
S11308700895FC016150704001900110D8F78095F3
S113088090958E0F9F1F08950F931F93CF93DF931F
S1130890FB01238121FD03C08FEF9FEF28C022FFBE
S11308A016C046815781248135814217530744F489
S11308B0A081B1819D012F5F3F4F318320838C93B1
S11308C0268137812F5F3F4F3783268310C0EB018A
S11308D0092F182F0084F185E02D0995892BE1F665
S11308E08E819F8101969F838E83812F902FDF912C
S11308F0CF911F910F910895FA01AA27283051F141
S1130900203181F1E8946F936E7F6E5F7F4F8F4F3C
S11309109F4FAF4FB1E03ED0B4E03CD0670F781F9B
S1130920891F9A1FA11D680F791F8A1F911DA11D80
S11309306A0F711D811D911DA11D20D009F46894B9
S11309403F912AE0269F11243019305D3193DEF661
S1130950CF010895462F4770405D4193B3E00FD017
S1130960C9F7F6CF462F4F70405D4A3318F0495D02
S113097031FD4052419302D0A9F7EACFB4E0A695E5
S11309809795879577956795BA95C9F70097610507
S1130990710508959B01AC010A2E0694579547955D
S11309A037952795BA95C9F7620F731F841F951F52
S10B09B0A01D0895F894FFCF87
S11309B820475F58203D2025332E32642C20475F82
S11309C859203D2025332E32642C20475F5A203D80
S11309D82025332E32642C2054656D70203D20254B
S10909E8332E326400000E
S9030000FC
